{
  "_format": "hh-sol-artifact-1",
  "contractName": "Medium",
  "sourceName": "contracts/Medium.sol",
  "abi": [
    {
      "inputs": [
        {
          "internalType": "string",
          "name": "name_",
          "type": "string"
        },
        {
          "internalType": "string",
          "name": "symbol_",
          "type": "string"
        },
        {
          "internalType": "uint256",
          "name": "fees_",
          "type": "uint256"
        }
      ],
      "stateMutability": "nonpayable",
      "type": "constructor"
    },
    {
      "anonymous": false,
      "inputs": [
        {
          "indexed": true,
          "internalType": "address",
          "name": "owner",
          "type": "address"
        },
        {
          "indexed": true,
          "internalType": "address",
          "name": "approved",
          "type": "address"
        },
        {
          "indexed": true,
          "internalType": "uint256",
          "name": "tokenId",
          "type": "uint256"
        }
      ],
      "name": "Approval",
      "type": "event"
    },
    {
      "anonymous": false,
      "inputs": [
        {
          "indexed": true,
          "internalType": "address",
          "name": "owner",
          "type": "address"
        },
        {
          "indexed": true,
          "internalType": "address",
          "name": "operator",
          "type": "address"
        },
        {
          "indexed": false,
          "internalType": "bool",
          "name": "approved",
          "type": "bool"
        }
      ],
      "name": "ApprovalForAll",
      "type": "event"
    },
    {
      "anonymous": false,
      "inputs": [
        {
          "indexed": true,
          "internalType": "address",
          "name": "previousOwner",
          "type": "address"
        },
        {
          "indexed": true,
          "internalType": "address",
          "name": "newOwner",
          "type": "address"
        }
      ],
      "name": "OwnershipTransferred",
      "type": "event"
    },
    {
      "anonymous": false,
      "inputs": [
        {
          "indexed": true,
          "internalType": "address",
          "name": "from",
          "type": "address"
        },
        {
          "indexed": true,
          "internalType": "address",
          "name": "to",
          "type": "address"
        },
        {
          "indexed": true,
          "internalType": "uint256",
          "name": "tokenId",
          "type": "uint256"
        }
      ],
      "name": "Transfer",
      "type": "event"
    },
    {
      "inputs": [
        {
          "internalType": "address",
          "name": "to",
          "type": "address"
        },
        {
          "internalType": "uint256",
          "name": "tokenId",
          "type": "uint256"
        }
      ],
      "name": "approve",
      "outputs": [],
      "stateMutability": "nonpayable",
      "type": "function"
    },
    {
      "inputs": [
        {
          "internalType": "address",
          "name": "owner",
          "type": "address"
        }
      ],
      "name": "balanceOf",
      "outputs": [
        {
          "internalType": "uint256",
          "name": "",
          "type": "uint256"
        }
      ],
      "stateMutability": "view",
      "type": "function"
    },
    {
      "inputs": [],
      "name": "fees",
      "outputs": [
        {
          "internalType": "uint256",
          "name": "",
          "type": "uint256"
        }
      ],
      "stateMutability": "view",
      "type": "function"
    },
    {
      "inputs": [
        {
          "internalType": "uint256",
          "name": "tokenId",
          "type": "uint256"
        }
      ],
      "name": "getApproved",
      "outputs": [
        {
          "internalType": "address",
          "name": "",
          "type": "address"
        }
      ],
      "stateMutability": "view",
      "type": "function"
    },
    {
      "inputs": [
        {
          "internalType": "address",
          "name": "owner",
          "type": "address"
        },
        {
          "internalType": "address",
          "name": "operator",
          "type": "address"
        }
      ],
      "name": "isApprovedForAll",
      "outputs": [
        {
          "internalType": "bool",
          "name": "",
          "type": "bool"
        }
      ],
      "stateMutability": "view",
      "type": "function"
    },
    {
      "inputs": [],
      "name": "name",
      "outputs": [
        {
          "internalType": "string",
          "name": "",
          "type": "string"
        }
      ],
      "stateMutability": "view",
      "type": "function"
    },
    {
      "inputs": [],
      "name": "owner",
      "outputs": [
        {
          "internalType": "address",
          "name": "",
          "type": "address"
        }
      ],
      "stateMutability": "view",
      "type": "function"
    },
    {
      "inputs": [
        {
          "internalType": "uint256",
          "name": "tokenId",
          "type": "uint256"
        }
      ],
      "name": "ownerOf",
      "outputs": [
        {
          "internalType": "address",
          "name": "",
          "type": "address"
        }
      ],
      "stateMutability": "view",
      "type": "function"
    },
    {
      "inputs": [],
      "name": "renounceOwnership",
      "outputs": [],
      "stateMutability": "nonpayable",
      "type": "function"
    },
    {
      "inputs": [
        {
          "internalType": "address",
          "name": "to",
          "type": "address"
        },
        {
          "internalType": "string",
          "name": "uri",
          "type": "string"
        }
      ],
      "name": "safeMint",
      "outputs": [],
      "stateMutability": "payable",
      "type": "function"
    },
    {
      "inputs": [
        {
          "internalType": "address",
          "name": "from",
          "type": "address"
        },
        {
          "internalType": "address",
          "name": "to",
          "type": "address"
        },
        {
          "internalType": "uint256",
          "name": "tokenId",
          "type": "uint256"
        }
      ],
      "name": "safeTransferFrom",
      "outputs": [],
      "stateMutability": "nonpayable",
      "type": "function"
    },
    {
      "inputs": [
        {
          "internalType": "address",
          "name": "from",
          "type": "address"
        },
        {
          "internalType": "address",
          "name": "to",
          "type": "address"
        },
        {
          "internalType": "uint256",
          "name": "tokenId",
          "type": "uint256"
        },
        {
          "internalType": "bytes",
          "name": "data",
          "type": "bytes"
        }
      ],
      "name": "safeTransferFrom",
      "outputs": [],
      "stateMutability": "nonpayable",
      "type": "function"
    },
    {
      "inputs": [
        {
          "internalType": "address",
          "name": "operator",
          "type": "address"
        },
        {
          "internalType": "bool",
          "name": "approved",
          "type": "bool"
        }
      ],
      "name": "setApprovalForAll",
      "outputs": [],
      "stateMutability": "nonpayable",
      "type": "function"
    },
    {
      "inputs": [],
      "name": "support",
      "outputs": [],
      "stateMutability": "payable",
      "type": "function"
    },
    {
      "inputs": [
        {
          "internalType": "bytes4",
          "name": "interfaceId",
          "type": "bytes4"
        }
      ],
      "name": "supportsInterface",
      "outputs": [
        {
          "internalType": "bool",
          "name": "",
          "type": "bool"
        }
      ],
      "stateMutability": "view",
      "type": "function"
    },
    {
      "inputs": [],
      "name": "symbol",
      "outputs": [
        {
          "internalType": "string",
          "name": "",
          "type": "string"
        }
      ],
      "stateMutability": "view",
      "type": "function"
    },
    {
      "inputs": [
        {
          "internalType": "uint256",
          "name": "tokenId",
          "type": "uint256"
        }
      ],
      "name": "tokenURI",
      "outputs": [
        {
          "internalType": "string",
          "name": "",
          "type": "string"
        }
      ],
      "stateMutability": "view",
      "type": "function"
    },
    {
      "inputs": [
        {
          "internalType": "address",
          "name": "from",
          "type": "address"
        },
        {
          "internalType": "address",
          "name": "to",
          "type": "address"
        },
        {
          "internalType": "uint256",
          "name": "tokenId",
          "type": "uint256"
        }
      ],
      "name": "transferFrom",
      "outputs": [],
      "stateMutability": "nonpayable",
      "type": "function"
    },
    {
      "inputs": [
        {
          "internalType": "address",
          "name": "newOwner",
          "type": "address"
        }
      ],
      "name": "transferOwnership",
      "outputs": [],
      "stateMutability": "nonpayable",
      "type": "function"
    }
  ],
  "bytecode": "0x608060405266038d7ea4c68000600a553480156200001c57600080fd5b5060405162003552380380620035528339818101604052810190620000429190620003fe565b828281600090805190602001906200005c92919062000176565b5080600190805190602001906200007592919062000176565b505050620000986200008c620000a860201b60201c565b620000b060201b60201c565b80600981905550505050620004fd565b600033905090565b6000600760009054906101000a900473ffffffffffffffffffffffffffffffffffffffff16905081600760006101000a81548173ffffffffffffffffffffffffffffffffffffffff021916908373ffffffffffffffffffffffffffffffffffffffff1602179055508173ffffffffffffffffffffffffffffffffffffffff168173ffffffffffffffffffffffffffffffffffffffff167f8be0079c531659141344cd1fd0a4f28419497f9722a3daafe3b4186f6b6457e060405160405180910390a35050565b8280546200018490620004c7565b90600052602060002090601f016020900481019282620001a85760008555620001f4565b82601f10620001c357805160ff1916838001178555620001f4565b82800160010185558215620001f4579182015b82811115620001f3578251825591602001919060010190620001d6565b5b50905062000203919062000207565b5090565b5b808211156200022257600081600090555060010162000208565b5090565b6000604051905090565b600080fd5b600080fd5b600080fd5b600080fd5b6000601f19601f8301169050919050565b7f4e487b7100000000000000000000000000000000000000000000000000000000600052604160045260246000fd5b6200028f8262000244565b810181811067ffffffffffffffff82111715620002b157620002b062000255565b5b80604052505050565b6000620002c662000226565b9050620002d4828262000284565b919050565b600067ffffffffffffffff821115620002f757620002f662000255565b5b620003028262000244565b9050602081019050919050565b60005b838110156200032f57808201518184015260208101905062000312565b838111156200033f576000848401525b50505050565b60006200035c6200035684620002d9565b620002ba565b9050828152602081018484840111156200037b576200037a6200023f565b5b620003888482856200030f565b509392505050565b600082601f830112620003a857620003a76200023a565b5b8151620003ba84826020860162000345565b91505092915050565b6000819050919050565b620003d881620003c3565b8114620003e457600080fd5b50565b600081519050620003f881620003cd565b92915050565b6000806000606084860312156200041a576200041962000230565b5b600084015167ffffffffffffffff8111156200043b576200043a62000235565b5b620004498682870162000390565b935050602084015167ffffffffffffffff8111156200046d576200046c62000235565b5b6200047b8682870162000390565b92505060406200048e86828701620003e7565b9150509250925092565b7f4e487b7100000000000000000000000000000000000000000000000000000000600052602260045260246000fd5b60006002820490506001821680620004e057607f821691505b60208210811415620004f757620004f662000498565b5b50919050565b613045806200050d6000396000f3fe6080604052600436106101145760003560e01c8063715018a6116100a0578063b88d4fde11610064578063b88d4fde1461037e578063c87b56dd146103a7578063d204c45e146103e4578063e985e9c514610400578063f2fde38b1461043d57610114565b8063715018a6146102bd5780638da5cb5b146102d457806395d89b41146102ff5780639af1d35a1461032a578063a22cb4651461035557610114565b8063119f8747116100e7578063119f8747146101e757806323b872dd146101f157806342842e0e1461021a5780636352211e1461024357806370a082311461028057610114565b806301ffc9a71461011957806306fdde0314610156578063081812fc14610181578063095ea7b3146101be575b600080fd5b34801561012557600080fd5b50610140600480360381019061013b9190611e3f565b610466565b60405161014d9190611e87565b60405180910390f35b34801561016257600080fd5b5061016b610548565b6040516101789190611f3b565b60405180910390f35b34801561018d57600080fd5b506101a860048036038101906101a39190611f93565b6105da565b6040516101b59190612001565b60405180910390f35b3480156101ca57600080fd5b506101e560048036038101906101e09190612048565b610620565b005b6101ef610738565b005b3480156101fd57600080fd5b5061021860048036038101906102139190612088565b610833565b005b34801561022657600080fd5b50610241600480360381019061023c9190612088565b610893565b005b34801561024f57600080fd5b5061026a60048036038101906102659190611f93565b6108b3565b6040516102779190612001565b60405180910390f35b34801561028c57600080fd5b506102a760048036038101906102a291906120db565b610965565b6040516102b49190612117565b60405180910390f35b3480156102c957600080fd5b506102d2610a1d565b005b3480156102e057600080fd5b506102e9610a31565b6040516102f69190612001565b60405180910390f35b34801561030b57600080fd5b50610314610a5b565b6040516103219190611f3b565b60405180910390f35b34801561033657600080fd5b5061033f610aed565b60405161034c9190612117565b60405180910390f35b34801561036157600080fd5b5061037c6004803603810190610377919061215e565b610af3565b005b34801561038a57600080fd5b506103a560048036038101906103a091906122d3565b610b09565b005b3480156103b357600080fd5b506103ce60048036038101906103c99190611f93565b610b6b565b6040516103db9190611f3b565b60405180910390f35b6103fe60048036038101906103f991906123f7565b610b7d565b005b34801561040c57600080fd5b5061042760048036038101906104229190612453565b610c9a565b6040516104349190611e87565b60405180910390f35b34801561044957600080fd5b50610464600480360381019061045f91906120db565b610d2e565b005b60007f80ac58cd000000000000000000000000000000000000000000000000000000007bffffffffffffffffffffffffffffffffffffffffffffffffffffffff1916827bffffffffffffffffffffffffffffffffffffffffffffffffffffffff1916148061053157507f5b5e139f000000000000000000000000000000000000000000000000000000007bffffffffffffffffffffffffffffffffffffffffffffffffffffffff1916827bffffffffffffffffffffffffffffffffffffffffffffffffffffffff1916145b80610541575061054082610db2565b5b9050919050565b606060008054610557906124c2565b80601f0160208091040260200160405190810160405280929190818152602001828054610583906124c2565b80156105d05780601f106105a5576101008083540402835291602001916105d0565b820191906000526020600020905b8154815290600101906020018083116105b357829003601f168201915b5050505050905090565b60006105e582610e1c565b6004600083815260200190815260200160002060009054906101000a900473ffffffffffffffffffffffffffffffffffffffff169050919050565b600061062b826108b3565b90508073ffffffffffffffffffffffffffffffffffffffff168373ffffffffffffffffffffffffffffffffffffffff16141561069c576040517f08c379a000000000000000000000000000000000000000000000000000000000815260040161069390612566565b60405180910390fd5b8073ffffffffffffffffffffffffffffffffffffffff166106bb610e67565b73ffffffffffffffffffffffffffffffffffffffff1614806106ea57506106e9816106e4610e67565b610c9a565b5b610729576040517f08c379a0000000000000000000000000000000000000000000000000000000008152600401610720906125f8565b60405180910390fd5b6107338383610e6f565b505050565b600a5434101561077d576040517f08c379a000000000000000000000000000000000000000000000000000000000815260040161077490612664565b60405180910390fd5b610785610a31565b73ffffffffffffffffffffffffffffffffffffffff166108fc600a549081150290604051600060405180830381858888f193505050501580156107cc573d6000803e3d6000fd5b506000600a54346107dd91906126b3565b90506000811115610830573373ffffffffffffffffffffffffffffffffffffffff166108fc829081150290604051600060405180830381858888f1935050505015801561082e573d6000803e3d6000fd5b505b50565b61084461083e610e67565b82610f28565b610883576040517f08c379a000000000000000000000000000000000000000000000000000000000815260040161087a90612759565b60405180910390fd5b61088e838383610fbd565b505050565b6108ae83838360405180602001604052806000815250610b09565b505050565b6000806002600084815260200190815260200160002060009054906101000a900473ffffffffffffffffffffffffffffffffffffffff169050600073ffffffffffffffffffffffffffffffffffffffff168173ffffffffffffffffffffffffffffffffffffffff16141561095c576040517f08c379a0000000000000000000000000000000000000000000000000000000008152600401610953906127c5565b60405180910390fd5b80915050919050565b60008073ffffffffffffffffffffffffffffffffffffffff168273ffffffffffffffffffffffffffffffffffffffff1614156109d6576040517f08c379a00000000000000000000000000000000000000000000000000000000081526004016109cd90612857565b60405180910390fd5b600360008373ffffffffffffffffffffffffffffffffffffffff1673ffffffffffffffffffffffffffffffffffffffff168152602001908152602001600020549050919050565b610a25611224565b610a2f60006112a2565b565b6000600760009054906101000a900473ffffffffffffffffffffffffffffffffffffffff16905090565b606060018054610a6a906124c2565b80601f0160208091040260200160405190810160405280929190818152602001828054610a96906124c2565b8015610ae35780601f10610ab857610100808354040283529160200191610ae3565b820191906000526020600020905b815481529060010190602001808311610ac657829003601f168201915b5050505050905090565b60095481565b610b05610afe610e67565b8383611368565b5050565b610b1a610b14610e67565b83610f28565b610b59576040517f08c379a0000000000000000000000000000000000000000000000000000000008152600401610b5090612759565b60405180910390fd5b610b65848484846114d5565b50505050565b6060610b7682611531565b9050919050565b600954341015610bc2576040517f08c379a0000000000000000000000000000000000000000000000000000000008152600401610bb9906128c3565b60405180910390fd5b610bca610a31565b73ffffffffffffffffffffffffffffffffffffffff166108fc6009549081150290604051600060405180830381858888f19350505050158015610c11573d6000803e3d6000fd5b506000610c1e6008611644565b9050610c2a6008611652565b610c348382611668565b610c3e8183611686565b60004790506000811115610c94573373ffffffffffffffffffffffffffffffffffffffff166108fc479081150290604051600060405180830381858888f19350505050158015610c92573d6000803e3d6000fd5b505b50505050565b6000600560008473ffffffffffffffffffffffffffffffffffffffff1673ffffffffffffffffffffffffffffffffffffffff16815260200190815260200160002060008373ffffffffffffffffffffffffffffffffffffffff1673ffffffffffffffffffffffffffffffffffffffff16815260200190815260200160002060009054906101000a900460ff16905092915050565b610d36611224565b600073ffffffffffffffffffffffffffffffffffffffff168173ffffffffffffffffffffffffffffffffffffffff161415610da6576040517f08c379a0000000000000000000000000000000000000000000000000000000008152600401610d9d90612955565b60405180910390fd5b610daf816112a2565b50565b60007f01ffc9a7000000000000000000000000000000000000000000000000000000007bffffffffffffffffffffffffffffffffffffffffffffffffffffffff1916827bffffffffffffffffffffffffffffffffffffffffffffffffffffffff1916149050919050565b610e25816116fa565b610e64576040517f08c379a0000000000000000000000000000000000000000000000000000000008152600401610e5b906127c5565b60405180910390fd5b50565b600033905090565b816004600083815260200190815260200160002060006101000a81548173ffffffffffffffffffffffffffffffffffffffff021916908373ffffffffffffffffffffffffffffffffffffffff160217905550808273ffffffffffffffffffffffffffffffffffffffff16610ee2836108b3565b73ffffffffffffffffffffffffffffffffffffffff167f8c5be1e5ebec7d5bd14f71427d1e84f3dd0314c0f7b2291e5b200ac8c7c3b92560405160405180910390a45050565b600080610f34836108b3565b90508073ffffffffffffffffffffffffffffffffffffffff168473ffffffffffffffffffffffffffffffffffffffff161480610f765750610f758185610c9a565b5b80610fb457508373ffffffffffffffffffffffffffffffffffffffff16610f9c846105da565b73ffffffffffffffffffffffffffffffffffffffff16145b91505092915050565b8273ffffffffffffffffffffffffffffffffffffffff16610fdd826108b3565b73ffffffffffffffffffffffffffffffffffffffff1614611033576040517f08c379a000000000000000000000000000000000000000000000000000000000815260040161102a906129e7565b60405180910390fd5b600073ffffffffffffffffffffffffffffffffffffffff168273ffffffffffffffffffffffffffffffffffffffff1614156110a3576040517f08c379a000000000000000000000000000000000000000000000000000000000815260040161109a90612a79565b60405180910390fd5b6110ae838383611766565b6110b9600082610e6f565b6001600360008573ffffffffffffffffffffffffffffffffffffffff1673ffffffffffffffffffffffffffffffffffffffff168152602001908152602001600020600082825461110991906126b3565b925050819055506001600360008473ffffffffffffffffffffffffffffffffffffffff1673ffffffffffffffffffffffffffffffffffffffff16815260200190815260200160002060008282546111609190612a99565b92505081905550816002600083815260200190815260200160002060006101000a81548173ffffffffffffffffffffffffffffffffffffffff021916908373ffffffffffffffffffffffffffffffffffffffff160217905550808273ffffffffffffffffffffffffffffffffffffffff168473ffffffffffffffffffffffffffffffffffffffff167fddf252ad1be2c89b69c2b068fc378daa952ba7f163c4a11628f55a4df523b3ef60405160405180910390a461121f83838361176b565b505050565b61122c610e67565b73ffffffffffffffffffffffffffffffffffffffff1661124a610a31565b73ffffffffffffffffffffffffffffffffffffffff16146112a0576040517f08c379a000000000000000000000000000000000000000000000000000000000815260040161129790612b3b565b60405180910390fd5b565b6000600760009054906101000a900473ffffffffffffffffffffffffffffffffffffffff16905081600760006101000a81548173ffffffffffffffffffffffffffffffffffffffff021916908373ffffffffffffffffffffffffffffffffffffffff1602179055508173ffffffffffffffffffffffffffffffffffffffff168173ffffffffffffffffffffffffffffffffffffffff167f8be0079c531659141344cd1fd0a4f28419497f9722a3daafe3b4186f6b6457e060405160405180910390a35050565b8173ffffffffffffffffffffffffffffffffffffffff168373ffffffffffffffffffffffffffffffffffffffff1614156113d7576040517f08c379a00000000000000000000000000000000000000000000000000000000081526004016113ce90612ba7565b60405180910390fd5b80600560008573ffffffffffffffffffffffffffffffffffffffff1673ffffffffffffffffffffffffffffffffffffffff16815260200190815260200160002060008473ffffffffffffffffffffffffffffffffffffffff1673ffffffffffffffffffffffffffffffffffffffff16815260200190815260200160002060006101000a81548160ff0219169083151502179055508173ffffffffffffffffffffffffffffffffffffffff168373ffffffffffffffffffffffffffffffffffffffff167f17307eab39ab6107e8899845ad3d59bd9653f200f220920489ca2b5937696c31836040516114c89190611e87565b60405180910390a3505050565b6114e0848484610fbd565b6114ec84848484611770565b61152b576040517f08c379a000000000000000000000000000000000000000000000000000000000815260040161152290612c39565b60405180910390fd5b50505050565b606061153c82610e1c565b600060066000848152602001908152602001600020805461155c906124c2565b80601f0160208091040260200160405190810160405280929190818152602001828054611588906124c2565b80156115d55780601f106115aa576101008083540402835291602001916115d5565b820191906000526020600020905b8154815290600101906020018083116115b857829003601f168201915b5050505050905060006115e66118f8565b90506000815114156115fc57819250505061163f565b600082511115611631578082604051602001611619929190612c95565b6040516020818303038152906040529250505061163f565b61163a8461190f565b925050505b919050565b600081600001549050919050565b6001816000016000828254019250508190555050565b611682828260405180602001604052806000815250611977565b5050565b61168f826116fa565b6116ce576040517f08c379a00000000000000000000000000000000000000000000000000000000081526004016116c590612d2b565b60405180910390fd5b806006600084815260200190815260200160002090805190602001906116f5929190611d30565b505050565b60008073ffffffffffffffffffffffffffffffffffffffff166002600084815260200190815260200160002060009054906101000a900473ffffffffffffffffffffffffffffffffffffffff1673ffffffffffffffffffffffffffffffffffffffff1614159050919050565b505050565b505050565b60006117918473ffffffffffffffffffffffffffffffffffffffff166119d2565b156118eb578373ffffffffffffffffffffffffffffffffffffffff1663150b7a026117ba610e67565b8786866040518563ffffffff1660e01b81526004016117dc9493929190612da0565b6020604051808303816000875af192505050801561181857506040513d601f19601f820116820180604052508101906118159190612e01565b60015b61189b573d8060008114611848576040519150601f19603f3d011682016040523d82523d6000602084013e61184d565b606091505b50600081511415611893576040517f08c379a000000000000000000000000000000000000000000000000000000000815260040161188a90612c39565b60405180910390fd5b805181602001fd5b63150b7a0260e01b7bffffffffffffffffffffffffffffffffffffffffffffffffffffffff1916817bffffffffffffffffffffffffffffffffffffffffffffffffffffffff1916149150506118f0565b600190505b949350505050565b606060405180602001604052806000815250905090565b606061191a82610e1c565b60006119246118f8565b90506000815111611944576040518060200160405280600081525061196f565b8061194e846119f5565b60405160200161195f929190612c95565b6040516020818303038152906040525b915050919050565b6119818383611b56565b61198e6000848484611770565b6119cd576040517f08c379a00000000000000000000000000000000000000000000000000000000081526004016119c490612c39565b60405180910390fd5b505050565b6000808273ffffffffffffffffffffffffffffffffffffffff163b119050919050565b60606000821415611a3d576040518060400160405280600181526020017f30000000000000000000000000000000000000000000000000000000000000008152509050611b51565b600082905060005b60008214611a6f578080611a5890612e2e565b915050600a82611a689190612ea6565b9150611a45565b60008167ffffffffffffffff811115611a8b57611a8a6121a8565b5b6040519080825280601f01601f191660200182016040528015611abd5781602001600182028036833780820191505090505b5090505b60008514611b4a57600182611ad691906126b3565b9150600a85611ae59190612ed7565b6030611af19190612a99565b60f81b818381518110611b0757611b06612f08565b5b60200101907effffffffffffffffffffffffffffffffffffffffffffffffffffffffffffff1916908160001a905350600a85611b439190612ea6565b9450611ac1565b8093505050505b919050565b600073ffffffffffffffffffffffffffffffffffffffff168273ffffffffffffffffffffffffffffffffffffffff161415611bc6576040517f08c379a0000000000000000000000000000000000000000000000000000000008152600401611bbd90612f83565b60405180910390fd5b611bcf816116fa565b15611c0f576040517f08c379a0000000000000000000000000000000000000000000000000000000008152600401611c0690612fef565b60405180910390fd5b611c1b60008383611766565b6001600360008473ffffffffffffffffffffffffffffffffffffffff1673ffffffffffffffffffffffffffffffffffffffff1681526020019081526020016000206000828254611c6b9190612a99565b92505081905550816002600083815260200190815260200160002060006101000a81548173ffffffffffffffffffffffffffffffffffffffff021916908373ffffffffffffffffffffffffffffffffffffffff160217905550808273ffffffffffffffffffffffffffffffffffffffff16600073ffffffffffffffffffffffffffffffffffffffff167fddf252ad1be2c89b69c2b068fc378daa952ba7f163c4a11628f55a4df523b3ef60405160405180910390a4611d2c6000838361176b565b5050565b828054611d3c906124c2565b90600052602060002090601f016020900481019282611d5e5760008555611da5565b82601f10611d7757805160ff1916838001178555611da5565b82800160010185558215611da5579182015b82811115611da4578251825591602001919060010190611d89565b5b509050611db29190611db6565b5090565b5b80821115611dcf576000816000905550600101611db7565b5090565b6000604051905090565b600080fd5b600080fd5b60007fffffffff0000000000000000000000000000000000000000000000000000000082169050919050565b611e1c81611de7565b8114611e2757600080fd5b50565b600081359050611e3981611e13565b92915050565b600060208284031215611e5557611e54611ddd565b5b6000611e6384828501611e2a565b91505092915050565b60008115159050919050565b611e8181611e6c565b82525050565b6000602082019050611e9c6000830184611e78565b92915050565b600081519050919050565b600082825260208201905092915050565b60005b83811015611edc578082015181840152602081019050611ec1565b83811115611eeb576000848401525b50505050565b6000601f19601f8301169050919050565b6000611f0d82611ea2565b611f178185611ead565b9350611f27818560208601611ebe565b611f3081611ef1565b840191505092915050565b60006020820190508181036000830152611f558184611f02565b905092915050565b6000819050919050565b611f7081611f5d565b8114611f7b57600080fd5b50565b600081359050611f8d81611f67565b92915050565b600060208284031215611fa957611fa8611ddd565b5b6000611fb784828501611f7e565b91505092915050565b600073ffffffffffffffffffffffffffffffffffffffff82169050919050565b6000611feb82611fc0565b9050919050565b611ffb81611fe0565b82525050565b60006020820190506120166000830184611ff2565b92915050565b61202581611fe0565b811461203057600080fd5b50565b6000813590506120428161201c565b92915050565b6000806040838503121561205f5761205e611ddd565b5b600061206d85828601612033565b925050602061207e85828601611f7e565b9150509250929050565b6000806000606084860312156120a1576120a0611ddd565b5b60006120af86828701612033565b93505060206120c086828701612033565b92505060406120d186828701611f7e565b9150509250925092565b6000602082840312156120f1576120f0611ddd565b5b60006120ff84828501612033565b91505092915050565b61211181611f5d565b82525050565b600060208201905061212c6000830184612108565b92915050565b61213b81611e6c565b811461214657600080fd5b50565b60008135905061215881612132565b92915050565b6000806040838503121561217557612174611ddd565b5b600061218385828601612033565b925050602061219485828601612149565b9150509250929050565b600080fd5b600080fd5b7f4e487b7100000000000000000000000000000000000000000000000000000000600052604160045260246000fd5b6121e082611ef1565b810181811067ffffffffffffffff821117156121ff576121fe6121a8565b5b80604052505050565b6000612212611dd3565b905061221e82826121d7565b919050565b600067ffffffffffffffff82111561223e5761223d6121a8565b5b61224782611ef1565b9050602081019050919050565b82818337600083830152505050565b600061227661227184612223565b612208565b905082815260208101848484011115612292576122916121a3565b5b61229d848285612254565b509392505050565b600082601f8301126122ba576122b961219e565b5b81356122ca848260208601612263565b91505092915050565b600080600080608085870312156122ed576122ec611ddd565b5b60006122fb87828801612033565b945050602061230c87828801612033565b935050604061231d87828801611f7e565b925050606085013567ffffffffffffffff81111561233e5761233d611de2565b5b61234a878288016122a5565b91505092959194509250565b600067ffffffffffffffff821115612371576123706121a8565b5b61237a82611ef1565b9050602081019050919050565b600061239a61239584612356565b612208565b9050828152602081018484840111156123b6576123b56121a3565b5b6123c1848285612254565b509392505050565b600082601f8301126123de576123dd61219e565b5b81356123ee848260208601612387565b91505092915050565b6000806040838503121561240e5761240d611ddd565b5b600061241c85828601612033565b925050602083013567ffffffffffffffff81111561243d5761243c611de2565b5b612449858286016123c9565b9150509250929050565b6000806040838503121561246a57612469611ddd565b5b600061247885828601612033565b925050602061248985828601612033565b9150509250929050565b7f4e487b7100000000000000000000000000000000000000000000000000000000600052602260045260246000fd5b600060028204905060018216806124da57607f821691505b602082108114156124ee576124ed612493565b5b50919050565b7f4552433732313a20617070726f76616c20746f2063757272656e74206f776e6560008201527f7200000000000000000000000000000000000000000000000000000000000000602082015250565b6000612550602183611ead565b915061255b826124f4565b604082019050919050565b6000602082019050818103600083015261257f81612543565b9050919050565b7f4552433732313a20617070726f76652063616c6c6572206973206e6f7420746f60008201527f6b656e206f776e6572206e6f7220617070726f76656420666f7220616c6c0000602082015250565b60006125e2603e83611ead565b91506125ed82612586565b604082019050919050565b60006020820190508181036000830152612611816125d5565b9050919050565b7f796f752068617665206e6f7420656e6f756768204d6174696300000000000000600082015250565b600061264e601983611ead565b915061265982612618565b602082019050919050565b6000602082019050818103600083015261267d81612641565b9050919050565b7f4e487b7100000000000000000000000000000000000000000000000000000000600052601160045260246000fd5b60006126be82611f5d565b91506126c983611f5d565b9250828210156126dc576126db612684565b5b828203905092915050565b7f4552433732313a2063616c6c6572206973206e6f7420746f6b656e206f776e6560008201527f72206e6f7220617070726f766564000000000000000000000000000000000000602082015250565b6000612743602e83611ead565b915061274e826126e7565b604082019050919050565b6000602082019050818103600083015261277281612736565b9050919050565b7f4552433732313a20696e76616c696420746f6b656e2049440000000000000000600082015250565b60006127af601883611ead565b91506127ba82612779565b602082019050919050565b600060208201905081810360008301526127de816127a2565b9050919050565b7f4552433732313a2061646472657373207a65726f206973206e6f74206120766160008201527f6c6964206f776e65720000000000000000000000000000000000000000000000602082015250565b6000612841602983611ead565b915061284c826127e5565b604082019050919050565b6000602082019050818103600083015261287081612834565b9050919050565b7f4e6f7420656e6f756768204d4154494300000000000000000000000000000000600082015250565b60006128ad601083611ead565b91506128b882612877565b602082019050919050565b600060208201905081810360008301526128dc816128a0565b9050919050565b7f4f776e61626c653a206e6577206f776e657220697320746865207a65726f206160008201527f6464726573730000000000000000000000000000000000000000000000000000602082015250565b600061293f602683611ead565b915061294a826128e3565b604082019050919050565b6000602082019050818103600083015261296e81612932565b9050919050565b7f4552433732313a207472616e736665722066726f6d20696e636f72726563742060008201527f6f776e6572000000000000000000000000000000000000000000000000000000602082015250565b60006129d1602583611ead565b91506129dc82612975565b604082019050919050565b60006020820190508181036000830152612a00816129c4565b9050919050565b7f4552433732313a207472616e7366657220746f20746865207a65726f2061646460008201527f7265737300000000000000000000000000000000000000000000000000000000602082015250565b6000612a63602483611ead565b9150612a6e82612a07565b604082019050919050565b60006020820190508181036000830152612a9281612a56565b9050919050565b6000612aa482611f5d565b9150612aaf83611f5d565b9250827fffffffffffffffffffffffffffffffffffffffffffffffffffffffffffffffff03821115612ae457612ae3612684565b5b828201905092915050565b7f4f776e61626c653a2063616c6c6572206973206e6f7420746865206f776e6572600082015250565b6000612b25602083611ead565b9150612b3082612aef565b602082019050919050565b60006020820190508181036000830152612b5481612b18565b9050919050565b7f4552433732313a20617070726f766520746f2063616c6c657200000000000000600082015250565b6000612b91601983611ead565b9150612b9c82612b5b565b602082019050919050565b60006020820190508181036000830152612bc081612b84565b9050919050565b7f4552433732313a207472616e7366657220746f206e6f6e20455243373231526560008201527f63656976657220696d706c656d656e7465720000000000000000000000000000602082015250565b6000612c23603283611ead565b9150612c2e82612bc7565b604082019050919050565b60006020820190508181036000830152612c5281612c16565b9050919050565b600081905092915050565b6000612c6f82611ea2565b612c798185612c59565b9350612c89818560208601611ebe565b80840191505092915050565b6000612ca18285612c64565b9150612cad8284612c64565b91508190509392505050565b7f45524337323155524953746f726167653a2055524920736574206f66206e6f6e60008201527f6578697374656e7420746f6b656e000000000000000000000000000000000000602082015250565b6000612d15602e83611ead565b9150612d2082612cb9565b604082019050919050565b60006020820190508181036000830152612d4481612d08565b9050919050565b600081519050919050565b600082825260208201905092915050565b6000612d7282612d4b565b612d7c8185612d56565b9350612d8c818560208601611ebe565b612d9581611ef1565b840191505092915050565b6000608082019050612db56000830187611ff2565b612dc26020830186611ff2565b612dcf6040830185612108565b8181036060830152612de18184612d67565b905095945050505050565b600081519050612dfb81611e13565b92915050565b600060208284031215612e1757612e16611ddd565b5b6000612e2584828501612dec565b91505092915050565b6000612e3982611f5d565b91507fffffffffffffffffffffffffffffffffffffffffffffffffffffffffffffffff821415612e6c57612e6b612684565b5b600182019050919050565b7f4e487b7100000000000000000000000000000000000000000000000000000000600052601260045260246000fd5b6000612eb182611f5d565b9150612ebc83611f5d565b925082612ecc57612ecb612e77565b5b828204905092915050565b6000612ee282611f5d565b9150612eed83611f5d565b925082612efd57612efc612e77565b5b828206905092915050565b7f4e487b7100000000000000000000000000000000000000000000000000000000600052603260045260246000fd5b7f4552433732313a206d696e7420746f20746865207a65726f2061646472657373600082015250565b6000612f6d602083611ead565b9150612f7882612f37565b602082019050919050565b60006020820190508181036000830152612f9c81612f60565b9050919050565b7f4552433732313a20746f6b656e20616c7265616479206d696e74656400000000600082015250565b6000612fd9601c83611ead565b9150612fe482612fa3565b602082019050919050565b6000602082019050818103600083015261300881612fcc565b905091905056fea2646970667358221220a76b79941624f3472a3be0a8acffe810a3ddf2d531c1b6e5c90ee6eb0468eaf164736f6c634300080b0033",
  "linkReferences": {},
  "deployedLinkReferences": {}
}